:1000000045C0000060C000005EC000005CC0000091
:100010005AC0000058C0000056C0000054C0000084
:1000200052C0000050C000004EC000004CC0000094
:100030004AC0000048C0000031C3000044C00000B6
:1000400042C0000040C0000053C300003CC000009C
:10005000EAC3000038C0000036C0000034C0000011
:1000600032C0000030C000002EC000002CC00000D4
:100070002AC00000E3C2000023C4000024C0000026
:1000800022C0000020C000001EC0000011241FBEBE
:10009000CFEFD0E1DEBFCDBF12E0A0E0B1E0EAE8F3
:1000A000F9E000E00BBF02C007900D92A634B10743
:1000B000D9F72FE0A6E4B2E001C01D92AA3DB20735
:1000C000E1F7A6D160C49CCF81E087BB80E885BF03
:1000D00096E0909395001092900083E389B928ED03
:1000E0002AB990939D00109298008093990088E916
:1000F00080939A007894089506C0E9EFF0E0319774
:10010000F1F700C00000E199F8CF1FBA8EBB81E083
:100110008CBB8DB3089506C0E9EFF0E03197F1F79D
:1001200000C00000E199F8CF1FBA8EBB6DBB84E020
:100130008CBB82E08CBB0895982F907E9695969507
:10014000903210F025E3922720E030E007C0990FAD
:10015000903210F045E394272F5F3F4F2230310556
:10016000B4F3892B0895CF93C82FE6DFC81711F099
:1001700080E001C08FEFCF910895E82FEF7160917B
:100180004902807E262F2295220F220F207C669521
:100190006695603210F095E3692770E0660F771F6F
:1001A000422F441F4427441F642B220F603210F05B
:1001B00095E36927462F50E0440F551F221F222741
:1001C000221F242B203210F095E3292760E070E0F5
:1001D0000FC030E0220F331F482F441F4427441F15
:1001E000242B880F203210F095E329276F5F7F4F73
:1001F0006830710574F32E1711F080E008958FEFC9
:10020000089506C0E9EFF0E03197F1F700C0000073
:1002100090919B0095FFF6CF80939C0008958111EB
:1002200010C08091460290914702009751F09DBD09
:10023000809146028CBD1FBC85E08EBD84E087BFE7
:1002400008958091460290914702009771F0909333
:100250008900809146028093880010928B0085E08F
:1002600080938A0084E080937D00089581110AC004
:100270008EB58E7F8EBD8EB58B7F8EBD87B78B7F03
:1002800087BF0895EAE8F0E080818E7F80838081D7
:100290008B7F8083EDE7F0E080818B7F8083089502
:1002A00006C0E9EFF0E03197F1F700C000005D9B78
:1002B000F8CF8CB90895CF93DF93EC0104C085B7D4
:1002C000806285BF889580914C028111F8CF81E0D2
:1002D00080934C02BE0188E592E04ED3FE0101906E
:1002E0000020E9F73197EC1BFD0BEF5FE0934B0229
:1002F000F0E0E95AFD4F108210924D0280E2D0DF0B
:10030000DF91CF91089582E090E0F6DE8093D80FE0
:100310008091D70F882341F080E491E0CCDF04C0C6
:1003200085B7806285BF88958091D70F8111F8CFFE
:1003300008950F931F93CF93C0E000E010E00AC030
:100340008C2F90E00196D8DE082BC11102C0102F2F
:100350000027CF5FC230A0F38091D90F882341F0EE
:100360008BE891E0A8DF109247021092460209C084
:10037000109347020093460204C085B7806285BF90
:1003800088958091D90F8111F8CFCF911F910F914E
:10039000089580E090E0B0DE8093D90F8093D70F6E
:1003A000C8DFB1DF8FEC91E086DF60E080E090E0B5
:1003B000B2DE6091470281E090E0ADDE60E082E075
:1003C00090E0A9DE6091D80F83E090E0A4DE8091F8
:1003D0004602909147029195819591099093470229
:1003E00080934602089580E0A7DE8093490291E061
:1003F0009093480206DF80E012DF8FED91E05BCF43
:10040000089562DEC6DFEFDF80E091E054CF08950B
:100410006FEF80E090E07FDE60E081E090E07BDEE7
:1004200060E082E090E077DEECDF85B7806285BF38
:100430008895FBCF20914F0230915002F901E95A83
:10044000FC4F80832F5F3F4F3093500220934F0229
:1004500020383C4020F01092500210924F02089534
:10046000CF93DF93C82FCDDECC233CF4C093490259
:1004700081E080934802D3DE3CC081E0F7DED0917A
:100480004802DD23D9F08C2F78DE8F3F79F4C07ECF
:10049000C03251F4809149028F71CCDF1092480232
:1004A00080E44ADEAEDE25C09EDF23C01092480203
:1004B0008AEAA7DE80EE40DEA4DE1BC08C2F53DE6E
:1004C0008F3F91F4C07EC03429F41092480280E03E
:1004D000CDDE0FC0C03E31F4DD2359F080914902DA
:1004E00090DE07C080DF05C08BEB8BDE80EE24DE64
:1004F00088DEDF91CF910895FB011182982F9295AC
:100500009F7090839A3018F4905D908302C0995C3C
:1005100090838F7081838A3018F4805D818302C05C
:10052000895C81838CE28283138208950F931F93E9
:10053000CF93DF9300D000D0CDB7DEB720914F022C
:1005400030915002232B21F481EF91E0B4DE37C0CB
:10055000811124C08AEF91E0AEDE00E010E016C009
:10056000F801E95AFC4FBE016F5F7F4F8081C4DF05
:10057000CE010196A0DE2FE38DE093E02150804074
:100580009040E1F700C000000F5F1F4F80914F02C5
:10059000909150020817190718F311C085E092E0F6
:1005A0008ADEE0914F02F0915002EA5AFC4FBE0100
:1005B0006F5F7F4F8081A0DFCE0101967CDE0F90C0
:1005C0000F900F900F90DF91CF911F910F91089591
:1005D000FC01208130ED320F3A3018F42295207F53
:1005E00015C03FE9320F363030F430E0275531097D
:1005F0002295207F0BC03FEB320F363030F430E0D5
:10060000275331092295207F01C020E0FC01818120
:1006100090ED980F9A3018F4280F20530DC09FE9E1
:10062000980F963018F4280F275506C09FEB980FA7
:10063000963010F4280F2753822F08951F920F929F
:100640000FB60F9211240BB60F922F933F934F9337
:100650005F936F937F938F939F93AF93BF93EF932A
:10066000FF9385B78F7D85BF80EE66DDCADD109272
:10067000490210924802FF91EF91BF91AF919F9173
:100680008F917F916F915F914F913F912F910F903B
:100690000BBE0F900FBE0F901F9018951F920F92D8
:1006A0000FB60F9211240BB60F922F933F934F93D7
:1006B0005F936F937F938F939F93AF93BF93EF93CA
:1006C000FF9385B78F7D85BF8EDEFF91EF91BF9140
:1006D000AF919F918F917F916F915F914F913F91DA
:1006E0002F910F900BBE0F900FBE0F901F9018957B
:1006F0001F920F920FB60F9211240BB60F920F9309
:100700001F932F933F934F935F936F937F938F9399
:100710009F93AF93BF93EF93FF9385B78F7D85BF73
:10072000A895A0914E02E1E0EA0FE0934E02B0E0FE
:100730008CB1AD5ABD4F8C93F0E0EE5AFD4F8081E5
:100740008E3209F05BC08091D90F882361F18091CE
:1007500053028053893008F04FC082E192E0ABDD54
:10076000A0915302B0E0D09720E032E14AE750E098
:10077000E4D08B019C01992324F401501C4F2F4F8E
:100780003F4FD901C801072E7AE0B595A7959795F7
:1007900087957A95D1F7702D909347028093460202
:1007A0001092D90F29C08091D70F882381F08091B2
:1007B00053028053893000F583E292E07CDD809122
:1007C000530280538093D80F1092D70F15C0809199
:1007D0005302823341F0833351F0813351F47894E2
:1007E00080E0A4DE09C0789481E0A0DE05C009DEC7
:1007F00003C085E392E05FDD10924E02FF91EF911E
:10080000BF91AF919F918F917F916F915F914F9128
:100810003F912F911F910F910F900BBE0F900FBE24
:100820000F901F9018951F920F920FB60F921124E0
:100830000BB60F922F933F934F935F936F937F93DA
:100840008F939F93AF93BF93EF93FF9385B78F7D64
:1008500085BF90914D02E92FF0E0E85AFD4F80816D
:100860008823B9F020914C02222399F09F5F909346
:100870004D0216DDE0914D0280914B02E81731F0F8
:10088000F0E0E85AFD4F8081811107C010924C02C0
:1008900004C010924D0210924B02FF91EF91BF9154
:1008A000AF919F918F917F916F915F914F913F9108
:1008B0002F910F900BBE0F900FBE0F901F901895A9
:1008C0001F920F920FB60F9211240BB60F922F9317
:1008D0003F934F935F936F937F938F939F93AF93C8
:1008E000BF93EF93FF9385B78F7D85BFE0914A0259
:1008F00081E08E0F80934A02F0E090919C00EF5AC5
:10090000FD4F9083823031F410924A0281E592E0EB
:100910005FDEA6DDFF91EF91BF91AF919F918F9127
:100920007F916F915F914F913F912F910F900BBEEF
:100930000F900FBE0F901F901895B7FF04C003D003
:10094000821B930B089509D0A59F900DB49F900D25
:10095000A49F800D911D11240895A29FB001B39F03
:10096000C001A39F700D811D1124911DB29F700DB8
:10097000811D1124911D0895FB01DC0101900D9250
:0A0980000020E1F70895F894FFCF7E
:10098A000D456E7465722063686F6963652028611E
:10099A006E6420706572696F64293A20312D4D6545
:1009AA006D2044756D7020322D4C61737420456E34
:1009BA0074727920332D5265737461727420000049
:1009CA00506C6561736520656E7465722074686524
:1009DA00207761746368646F672074696D6572203B
:1009EA006475726174696F6E2077616E74656420D4
:1009FA00696E2028302D38297320283020746F2002
:100A0A0064697361626C65293A2000506C65617390
:100A1A006520656E746572207468652074696D65F9
:100A2A006F7574206475726174696F6E2077616E78
:100A3A0074656420696E2028302D38297320283087
:100A4A0020746F2064697361626C65293A200053CF
:100A5A006176696E672053657474696E67730053B3
:100A6A00656E736F727320526573657474696E670D
:100A7A00004E6F206461746120004D454D2044553D
:100A8A004D503A20004C61737420456E7472793A65
:100A9A00200052454345495645442054494D454F47
:100AAA0055540052454345495645442057415443FD
:100ABA0048444F4700496E76616C696420636F6DE4
:060ACA006D616E64000086
:00000001FF
